:1000000026C035C034C033C032C0D7C030C02FC0C6
:100010002EC02DC02CC02BC02AC029C028C0000073
:10002000000036000000000037000000000038002B
:10003000020202020202020202020102040810206D
:100040002004100801020000040000000000112438
:100050001FBECFE5D2E0DEBFCDBF20E0A0E6B0E01E
:1000600001C01D92A936B207E1F7F1D074C1C8CF23
:10007000823089F018F4813051F00895833019F0FE
:10008000843009F008958CB58F7D8CBD08958AB5B4
:100090008F778ABD08958AB58F7DFBCF1F93CF934D
:1000A000DF93282F30E0F901EC5BFF4F8491F901D9
:1000B000E65CFF4FD491F901E05DFF4FC491CC2382
:1000C000A1F0162F8111D4DFEC2FF0E0EE0FFF1F0F
:1000D000E65DFF4FA591B4918FB7F894EC911111A3
:1000E00008C0D095DE23DC938FBFDF91CF911F91A5
:1000F0000895DE2BF8CFCF93DF9390E0FC01E65C10
:10010000FF4F2491805D9F4FFC0184918823C9F0AB
:1001100090E0880F991FFC01EC5DFF4FA591B49111
:10012000FC01E65DFF4FC591D49161110DC09FB7F1
:10013000F8948C91209582238C938881282328839E
:100140009FBFDF91CF910895623051F49FB7F8942B
:100150003C91822F809583238C93E8812E2BEFCFC7
:100160008FB7F894EC912E2B2C938FBFEACF3FB72B
:10017000F8948091650090916600A0916700B0911D
:10018000680022B708B601FE05C02F3F19F001969E
:10019000A11DB11D3FBFBA2FA92F982F8827BC01E1
:1001A000CD01620F711D811D911D42E0660F771F09
:1001B000881F991F4A95D1F708951F920F920FB685
:1001C0000F9211242F933F938F939F93AF93BF93DD
:1001D0008091610090916200A0916300B0916400F1
:1001E0003091600023E0230F2D3758F50196A11DB3
:1001F000B11D209360008093610090936200A093F2
:100200006300B09364008091650090916600A091B6
:100210006700B09168000196A11DB11D8093650033
:1002200090936600A0936700B0936800BF91AF9170
:100230009F918F913F912F910F900FBE0F901F9024
:10024000189526E8230F0296A11DB11DD2CF7894F0
:100250008AB582608ABD8AB581608ABD83B78260B3
:1002600083BF83B7816083BF89B7826089BF80B74E
:10027000826080BF80B7816080BF8CB580648CBD98
:10028000329A319A309A379A8CB580648CBD85B792
:100290008F7D85BF61E080E02EDF61E081E02BDFB4
:1002A00062E082E028DF61E080E0F8DEE6E4F0E092
:1002B0008491ECE3F0E0D491E2E3F0E0C491CC234C
:1002C000B1F18111D5DEEC2FF0E0EE0FFF1FE25E01
:1002D000FF4FA591B491EC91ED2349F161E081E0EC
:1002E000DDDE60E080E0DADE42DF4B015C0188E8C1
:1002F000C82E83E1D82EE12CF12C39DF6819790959
:100300008A099B09683E734081059105B0F321E09D
:10031000C21AD108E108F10888EE880E83E0981E21
:10032000A11CB11CC114D104E104F10431F760E057
:1003300080E0E1DE60E081E0B1DEC0E0D0E085B7E2
:10034000877E806185BF85B7806285BF889520974D
:0A035000B1F356DEF4CFF894FFCFAE
:00000001FF
